{
	"_format": "hh-sol-artifact-1",
	"contractName": "Forge",
	"sourceName": "contracts/Forge.sol",
	"abi": [
		{
			"inputs": [
				{
					"internalType": "address",
					"name": "sampleERC1155Contract",
					"type": "address"
				}
			],
			"stateMutability": "nonpayable",
			"type": "constructor"
		},
		{
			"anonymous": false,
			"inputs": [
				{
					"indexed": true,
					"internalType": "address",
					"name": "previousOwner",
					"type": "address"
				},
				{
					"indexed": true,
					"internalType": "address",
					"name": "newOwner",
					"type": "address"
				}
			],
			"name": "OwnershipTransferred",
			"type": "event"
		},
		{
			"inputs": [
				{
					"internalType": "uint256[]",
					"name": "tokenIds",
					"type": "uint256[]"
				}
			],
			"name": "forge",
			"outputs": [],
			"stateMutability": "nonpayable",
			"type": "function"
		},
		{
			"inputs": [],
			"name": "owner",
			"outputs": [
				{
					"internalType": "address",
					"name": "",
					"type": "address"
				}
			],
			"stateMutability": "view",
			"type": "function"
		},
		{
			"inputs": [],
			"name": "renounceOwnership",
			"outputs": [],
			"stateMutability": "nonpayable",
			"type": "function"
		},
		{
			"inputs": [
				{
					"internalType": "uint256",
					"name": "offeredItem",
					"type": "uint256"
				},
				{
					"internalType": "uint256",
					"name": "wantedItem",
					"type": "uint256"
				}
			],
			"name": "trade",
			"outputs": [],
			"stateMutability": "nonpayable",
			"type": "function"
		},
		{
			"inputs": [
				{
					"internalType": "address",
					"name": "newOwner",
					"type": "address"
				}
			],
			"name": "transferOwnership",
			"outputs": [],
			"stateMutability": "nonpayable",
			"type": "function"
		}
	],
	"bytecode": "0x60806040523480156200001157600080fd5b50604051620012c8380380620012c8833981810160405281019062000037919062000265565b620000576200004b6200012f60201b60201c565b6200013760201b60201c565b80600160006101000a81548173ffffffffffffffffffffffffffffffffffffffff021916908373ffffffffffffffffffffffffffffffffffffffff16021790555060036002604051620000aa90620002f2565b90815260200160405180910390208190555060046002604051620000ce9062000359565b90815260200160405180910390208190555060056002604051620000f290620003c0565b90815260200160405180910390208190555060066002604051620001169062000427565b908152602001604051809103902081905550506200043e565b600033905090565b60008060009054906101000a900473ffffffffffffffffffffffffffffffffffffffff169050816000806101000a81548173ffffffffffffffffffffffffffffffffffffffff021916908373ffffffffffffffffffffffffffffffffffffffff1602179055508173ffffffffffffffffffffffffffffffffffffffff168173ffffffffffffffffffffffffffffffffffffffff167f8be0079c531659141344cd1fd0a4f28419497f9722a3daafe3b4186f6b6457e060405160405180910390a35050565b600080fd5b600073ffffffffffffffffffffffffffffffffffffffff82169050919050565b60006200022d8262000200565b9050919050565b6200023f8162000220565b81146200024b57600080fd5b50565b6000815190506200025f8162000234565b92915050565b6000602082840312156200027e576200027d620001fb565b5b60006200028e848285016200024e565b91505092915050565b600081905092915050565b7f3b303b3100000000000000000000000000000000000000000000000000000000600082015250565b6000620002da60048362000297565b9150620002e782620002a2565b600482019050919050565b6000620002ff82620002cb565b9150819050919050565b7f3b313b3200000000000000000000000000000000000000000000000000000000600082015250565b60006200034160048362000297565b91506200034e8262000309565b600482019050919050565b6000620003668262000332565b9150819050919050565b7f3b303b3200000000000000000000000000000000000000000000000000000000600082015250565b6000620003a860048362000297565b9150620003b58262000370565b600482019050919050565b6000620003cd8262000399565b9150819050919050565b7f3b303b313b320000000000000000000000000000000000000000000000000000600082015250565b60006200040f60068362000297565b91506200041c82620003d7565b600682019050919050565b6000620004348262000400565b9150819050919050565b610e7a806200044e6000396000f3fe608060405234801561001057600080fd5b50600436106100575760003560e01c80631019bdb61461005c578063715018a6146100785780638da5cb5b14610082578063e20be69a146100a0578063f2fde38b146100bc575b600080fd5b61007660048036038101906100719190610802565b6100d8565b005b6100806102de565b005b61008a6102f2565b6040516100979190610890565b60405180910390f35b6100ba60048036038101906100b591906108e1565b61031b565b005b6100d660048036038101906100d1919061094d565b610466565b005b600060405180602001604052806000815250905060005b838390508110156101fd578161011d8585848181106101115761011061097a565b5b905060200201356104e9565b60405160200161012e929190610a40565b6040516020818303038152906040529150600160009054906101000a900473ffffffffffffffffffffffffffffffffffffffff1673ffffffffffffffffffffffffffffffffffffffff1663f5298aca338686858181106101915761019061097a565b5b9050602002013560016040518463ffffffff1660e01b81526004016101b893929190610ac7565b600060405180830381600087803b1580156101d257600080fd5b505af11580156101e6573d6000803e3d6000fd5b5050505080806101f590610b2d565b9150506100ef565b5060006002826040516102109190610b75565b9081526020016040518091039020541161022957600080fd5b600160009054906101000a900473ffffffffffffffffffffffffffffffffffffffff1673ffffffffffffffffffffffffffffffffffffffff1663731133e9336002846040516102789190610b75565b90815260200160405180910390205460016040518463ffffffff1660e01b81526004016102a793929190610bc3565b600060405180830381600087803b1580156102c157600080fd5b505af11580156102d5573d6000803e3d6000fd5b50505050505050565b6102e6610649565b6102f060006106c7565b565b60008060009054906101000a900473ffffffffffffffffffffffffffffffffffffffff16905090565b600181148061032a5750600081145b806103355750600281145b61033e57600080fd5b600160009054906101000a900473ffffffffffffffffffffffffffffffffffffffff1673ffffffffffffffffffffffffffffffffffffffff1663f5298aca338460016040518463ffffffff1660e01b815260040161039e93929190610ac7565b600060405180830381600087803b1580156103b857600080fd5b505af11580156103cc573d6000803e3d6000fd5b50505050600160009054906101000a900473ffffffffffffffffffffffffffffffffffffffff1673ffffffffffffffffffffffffffffffffffffffff1663731133e9338360016040518463ffffffff1660e01b815260040161043093929190610bc3565b600060405180830381600087803b15801561044a57600080fd5b505af115801561045e573d6000803e3d6000fd5b505050505050565b61046e610649565b600073ffffffffffffffffffffffffffffffffffffffff168173ffffffffffffffffffffffffffffffffffffffff16036104dd576040517f08c379a00000000000000000000000000000000000000000000000000000000081526004016104d490610c90565b60405180910390fd5b6104e6816106c7565b50565b606060008203610530576040518060400160405280600181526020017f30000000000000000000000000000000000000000000000000000000000000008152509050610644565b600082905060005b6000821461056257808061054b90610b2d565b915050600a8261055b9190610cdf565b9150610538565b60008167ffffffffffffffff81111561057e5761057d610d10565b5b6040519080825280601f01601f1916602001820160405280156105b05781602001600182028036833780820191505090505b5090505b6000851461063d576001826105c99190610d3f565b9150600a856105d89190610d73565b60306105e49190610da4565b60f81b8183815181106105fa576105f961097a565b5b60200101907effffffffffffffffffffffffffffffffffffffffffffffffffffffffffffff1916908160001a905350600a856106369190610cdf565b94506105b4565b8093505050505b919050565b61065161078b565b73ffffffffffffffffffffffffffffffffffffffff1661066f6102f2565b73ffffffffffffffffffffffffffffffffffffffff16146106c5576040517f08c379a00000000000000000000000000000000000000000000000000000000081526004016106bc90610e24565b60405180910390fd5b565b60008060009054906101000a900473ffffffffffffffffffffffffffffffffffffffff169050816000806101000a81548173ffffffffffffffffffffffffffffffffffffffff021916908373ffffffffffffffffffffffffffffffffffffffff1602179055508173ffffffffffffffffffffffffffffffffffffffff168173ffffffffffffffffffffffffffffffffffffffff167f8be0079c531659141344cd1fd0a4f28419497f9722a3daafe3b4186f6b6457e060405160405180910390a35050565b600033905090565b600080fd5b600080fd5b600080fd5b600080fd5b600080fd5b60008083601f8401126107c2576107c161079d565b5b8235905067ffffffffffffffff8111156107df576107de6107a2565b5b6020830191508360208202830111156107fb576107fa6107a7565b5b9250929050565b6000806020838503121561081957610818610793565b5b600083013567ffffffffffffffff81111561083757610836610798565b5b610843858286016107ac565b92509250509250929050565b600073ffffffffffffffffffffffffffffffffffffffff82169050919050565b600061087a8261084f565b9050919050565b61088a8161086f565b82525050565b60006020820190506108a56000830184610881565b92915050565b6000819050919050565b6108be816108ab565b81146108c957600080fd5b50565b6000813590506108db816108b5565b92915050565b600080604083850312156108f8576108f7610793565b5b6000610906858286016108cc565b9250506020610917858286016108cc565b9150509250929050565b61092a8161086f565b811461093557600080fd5b50565b60008135905061094781610921565b92915050565b60006020828403121561096357610962610793565b5b600061097184828501610938565b91505092915050565b7f4e487b7100000000000000000000000000000000000000000000000000000000600052603260045260246000fd5b600081519050919050565b600081905092915050565b60005b838110156109dd5780820151818401526020810190506109c2565b60008484015250505050565b60006109f4826109a9565b6109fe81856109b4565b9350610a0e8185602086016109bf565b80840191505092915050565b7f3b00000000000000000000000000000000000000000000000000000000000000815250565b6000610a4c82856109e9565b9150610a5782610a1a565b600182019150610a6782846109e9565b91508190509392505050565b610a7c816108ab565b82525050565b6000819050919050565b6000819050919050565b6000610ab1610aac610aa784610a82565b610a8c565b6108ab565b9050919050565b610ac181610a96565b82525050565b6000606082019050610adc6000830186610881565b610ae96020830185610a73565b610af66040830184610ab8565b949350505050565b7f4e487b7100000000000000000000000000000000000000000000000000000000600052601160045260246000fd5b6000610b38826108ab565b91507fffffffffffffffffffffffffffffffffffffffffffffffffffffffffffffffff8203610b6a57610b69610afe565b5b600182019050919050565b6000610b8182846109e9565b915081905092915050565b600082825260208201905092915050565b50565b6000610bad600083610b8c565b9150610bb882610b9d565b600082019050919050565b6000608082019050610bd86000830186610881565b610be56020830185610a73565b610bf26040830184610ab8565b8181036060830152610c0381610ba0565b9050949350505050565b600082825260208201905092915050565b7f4f776e61626c653a206e6577206f776e657220697320746865207a65726f206160008201527f6464726573730000000000000000000000000000000000000000000000000000602082015250565b6000610c7a602683610c0d565b9150610c8582610c1e565b604082019050919050565b60006020820190508181036000830152610ca981610c6d565b9050919050565b7f4e487b7100000000000000000000000000000000000000000000000000000000600052601260045260246000fd5b6000610cea826108ab565b9150610cf5836108ab565b925082610d0557610d04610cb0565b5b828204905092915050565b7f4e487b7100000000000000000000000000000000000000000000000000000000600052604160045260246000fd5b6000610d4a826108ab565b9150610d55836108ab565b9250828203905081811115610d6d57610d6c610afe565b5b92915050565b6000610d7e826108ab565b9150610d89836108ab565b925082610d9957610d98610cb0565b5b828206905092915050565b6000610daf826108ab565b9150610dba836108ab565b9250828201905080821115610dd257610dd1610afe565b5b92915050565b7f4f776e61626c653a2063616c6c6572206973206e6f7420746865206f776e6572600082015250565b6000610e0e602083610c0d565b9150610e1982610dd8565b602082019050919050565b60006020820190508181036000830152610e3d81610e01565b905091905056fea2646970667358221220fc885ffa5d5fde101b97d05c98661df78f83f6176a33e5da01cfa75300b188fa64736f6c63430008100033",
	"linkReferences": {},
	"deployedLinkReferences": {}
}