{
    "_format": "hh-sol-artifact-1",
    "contractName": "SampleERC1155",
    "sourceName": "contracts/SampleERC1155.sol",
    "abi": [
        {
            "inputs": [
                {
                    "internalType": "string",
                    "name": "baseURI",
                    "type": "string"
                }
            ],
            "stateMutability": "nonpayable",
            "type": "constructor"
        },
        {
            "anonymous": false,
            "inputs": [
                {
                    "indexed": true,
                    "internalType": "address",
                    "name": "account",
                    "type": "address"
                },
                {
                    "indexed": true,
                    "internalType": "address",
                    "name": "operator",
                    "type": "address"
                },
                {
                    "indexed": false,
                    "internalType": "bool",
                    "name": "approved",
                    "type": "bool"
                }
            ],
            "name": "ApprovalForAll",
            "type": "event"
        },
        {
            "anonymous": false,
            "inputs": [
                {
                    "indexed": true,
                    "internalType": "address",
                    "name": "previousOwner",
                    "type": "address"
                },
                {
                    "indexed": true,
                    "internalType": "address",
                    "name": "newOwner",
                    "type": "address"
                }
            ],
            "name": "OwnershipTransferred",
            "type": "event"
        },
        {
            "anonymous": false,
            "inputs": [
                {
                    "indexed": false,
                    "internalType": "address",
                    "name": "account",
                    "type": "address"
                }
            ],
            "name": "Paused",
            "type": "event"
        },
        {
            "anonymous": false,
            "inputs": [
                {
                    "indexed": true,
                    "internalType": "address",
                    "name": "operator",
                    "type": "address"
                },
                {
                    "indexed": true,
                    "internalType": "address",
                    "name": "from",
                    "type": "address"
                },
                {
                    "indexed": true,
                    "internalType": "address",
                    "name": "to",
                    "type": "address"
                },
                {
                    "indexed": false,
                    "internalType": "uint256[]",
                    "name": "ids",
                    "type": "uint256[]"
                },
                {
                    "indexed": false,
                    "internalType": "uint256[]",
                    "name": "values",
                    "type": "uint256[]"
                }
            ],
            "name": "TransferBatch",
            "type": "event"
        },
        {
            "anonymous": false,
            "inputs": [
                {
                    "indexed": true,
                    "internalType": "address",
                    "name": "operator",
                    "type": "address"
                },
                {
                    "indexed": true,
                    "internalType": "address",
                    "name": "from",
                    "type": "address"
                },
                {
                    "indexed": true,
                    "internalType": "address",
                    "name": "to",
                    "type": "address"
                },
                {
                    "indexed": false,
                    "internalType": "uint256",
                    "name": "id",
                    "type": "uint256"
                },
                {
                    "indexed": false,
                    "internalType": "uint256",
                    "name": "value",
                    "type": "uint256"
                }
            ],
            "name": "TransferSingle",
            "type": "event"
        },
        {
            "anonymous": false,
            "inputs": [
                {
                    "indexed": false,
                    "internalType": "string",
                    "name": "value",
                    "type": "string"
                },
                {
                    "indexed": true,
                    "internalType": "uint256",
                    "name": "id",
                    "type": "uint256"
                }
            ],
            "name": "URI",
            "type": "event"
        },
        {
            "anonymous": false,
            "inputs": [
                {
                    "indexed": false,
                    "internalType": "address",
                    "name": "account",
                    "type": "address"
                }
            ],
            "name": "Unpaused",
            "type": "event"
        },
        {
            "inputs": [
                {
                    "internalType": "address",
                    "name": "account",
                    "type": "address"
                },
                {
                    "internalType": "uint256",
                    "name": "id",
                    "type": "uint256"
                }
            ],
            "name": "balanceOf",
            "outputs": [
                {
                    "internalType": "uint256",
                    "name": "",
                    "type": "uint256"
                }
            ],
            "stateMutability": "view",
            "type": "function"
        },
        {
            "inputs": [
                {
                    "internalType": "address[]",
                    "name": "accounts",
                    "type": "address[]"
                },
                {
                    "internalType": "uint256[]",
                    "name": "ids",
                    "type": "uint256[]"
                }
            ],
            "name": "balanceOfBatch",
            "outputs": [
                {
                    "internalType": "uint256[]",
                    "name": "",
                    "type": "uint256[]"
                }
            ],
            "stateMutability": "view",
            "type": "function"
        },
        {
            "inputs": [
                {
                    "internalType": "address",
                    "name": "account",
                    "type": "address"
                },
                {
                    "internalType": "uint256",
                    "name": "id",
                    "type": "uint256"
                },
                {
                    "internalType": "uint256",
                    "name": "value",
                    "type": "uint256"
                }
            ],
            "name": "burn",
            "outputs": [],
            "stateMutability": "nonpayable",
            "type": "function"
        },
        {
            "inputs": [
                {
                    "internalType": "uint256",
                    "name": "id",
                    "type": "uint256"
                }
            ],
            "name": "exists",
            "outputs": [
                {
                    "internalType": "bool",
                    "name": "",
                    "type": "bool"
                }
            ],
            "stateMutability": "view",
            "type": "function"
        },
        {
            "inputs": [
                {
                    "internalType": "address",
                    "name": "account",
                    "type": "address"
                },
                {
                    "internalType": "address",
                    "name": "operator",
                    "type": "address"
                }
            ],
            "name": "isApprovedForAll",
            "outputs": [
                {
                    "internalType": "bool",
                    "name": "",
                    "type": "bool"
                }
            ],
            "stateMutability": "view",
            "type": "function"
        },
        {
            "inputs": [
                {
                    "internalType": "address",
                    "name": "account",
                    "type": "address"
                },
                {
                    "internalType": "uint256",
                    "name": "id",
                    "type": "uint256"
                },
                {
                    "internalType": "uint256",
                    "name": "amount",
                    "type": "uint256"
                },
                {
                    "internalType": "bytes",
                    "name": "data",
                    "type": "bytes"
                }
            ],
            "name": "mint",
            "outputs": [],
            "stateMutability": "nonpayable",
            "type": "function"
        },
        {
            "inputs": [
                {
                    "internalType": "address",
                    "name": "to",
                    "type": "address"
                },
                {
                    "internalType": "uint256[]",
                    "name": "ids",
                    "type": "uint256[]"
                },
                {
                    "internalType": "uint256[]",
                    "name": "amounts",
                    "type": "uint256[]"
                },
                {
                    "internalType": "bytes",
                    "name": "data",
                    "type": "bytes"
                }
            ],
            "name": "mintBatch",
            "outputs": [],
            "stateMutability": "nonpayable",
            "type": "function"
        },
        {
            "inputs": [],
            "name": "owner",
            "outputs": [
                {
                    "internalType": "address",
                    "name": "",
                    "type": "address"
                }
            ],
            "stateMutability": "view",
            "type": "function"
        },
        {
            "inputs": [],
            "name": "pause",
            "outputs": [],
            "stateMutability": "nonpayable",
            "type": "function"
        },
        {
            "inputs": [],
            "name": "paused",
            "outputs": [
                {
                    "internalType": "bool",
                    "name": "",
                    "type": "bool"
                }
            ],
            "stateMutability": "view",
            "type": "function"
        },
        {
            "inputs": [
                {
                    "internalType": "uint256",
                    "name": "tokenId",
                    "type": "uint256"
                }
            ],
            "name": "publicMint",
            "outputs": [],
            "stateMutability": "nonpayable",
            "type": "function"
        },
        {
            "inputs": [],
            "name": "renounceOwnership",
            "outputs": [],
            "stateMutability": "nonpayable",
            "type": "function"
        },
        {
            "inputs": [
                {
                    "internalType": "address",
                    "name": "from",
                    "type": "address"
                },
                {
                    "internalType": "address",
                    "name": "to",
                    "type": "address"
                },
                {
                    "internalType": "uint256[]",
                    "name": "ids",
                    "type": "uint256[]"
                },
                {
                    "internalType": "uint256[]",
                    "name": "amounts",
                    "type": "uint256[]"
                },
                {
                    "internalType": "bytes",
                    "name": "data",
                    "type": "bytes"
                }
            ],
            "name": "safeBatchTransferFrom",
            "outputs": [],
            "stateMutability": "nonpayable",
            "type": "function"
        },
        {
            "inputs": [
                {
                    "internalType": "address",
                    "name": "from",
                    "type": "address"
                },
                {
                    "internalType": "address",
                    "name": "to",
                    "type": "address"
                },
                {
                    "internalType": "uint256",
                    "name": "id",
                    "type": "uint256"
                },
                {
                    "internalType": "uint256",
                    "name": "amount",
                    "type": "uint256"
                },
                {
                    "internalType": "bytes",
                    "name": "data",
                    "type": "bytes"
                }
            ],
            "name": "safeTransferFrom",
            "outputs": [],
            "stateMutability": "nonpayable",
            "type": "function"
        },
        {
            "inputs": [
                {
                    "internalType": "address",
                    "name": "operator",
                    "type": "address"
                },
                {
                    "internalType": "bool",
                    "name": "approved",
                    "type": "bool"
                }
            ],
            "name": "setApprovalForAll",
            "outputs": [],
            "stateMutability": "nonpayable",
            "type": "function"
        },
        {
            "inputs": [
                {
                    "internalType": "bytes4",
                    "name": "interfaceId",
                    "type": "bytes4"
                }
            ],
            "name": "supportsInterface",
            "outputs": [
                {
                    "internalType": "bool",
                    "name": "",
                    "type": "bool"
                }
            ],
            "stateMutability": "view",
            "type": "function"
        },
        {
            "inputs": [
                {
                    "internalType": "uint256",
                    "name": "id",
                    "type": "uint256"
                }
            ],
            "name": "totalSupply",
            "outputs": [
                {
                    "internalType": "uint256",
                    "name": "",
                    "type": "uint256"
                }
            ],
            "stateMutability": "view",
            "type": "function"
        },
        {
            "inputs": [
                {
                    "internalType": "address",
                    "name": "newOwner",
                    "type": "address"
                }
            ],
            "name": "transferOwnership",
            "outputs": [],
            "stateMutability": "nonpayable",
            "type": "function"
        },
        {
            "inputs": [],
            "name": "unpause",
            "outputs": [],
            "stateMutability": "nonpayable",
            "type": "function"
        },
        {
            "inputs": [
                {
                    "internalType": "uint256",
                    "name": "tokenId",
                    "type": "uint256"
                }
            ],
            "name": "uri",
            "outputs": [
                {
                    "internalType": "string",
                    "name": "",
                    "type": "string"
                }
            ],
            "stateMutability": "view",
            "type": "function"
        }
    ],
    "bytecode": "0x60806040523480156200001157600080fd5b50604051620045d7380380620045d78339818101604052810190620000379190620003a9565b6040518060200160405280600081525062000058816200013360201b60201c565b50620000796200006d6200014860201b60201c565b6200015060201b60201c565b6000600360146101000a81548160ff0219169083151502179055508060059081620000a5919062000645565b5060016006600080815260200190815260200160002060006101000a81548160ff0219169083151502179055506001600660006001815260200190815260200160002060006101000a81548160ff0219169083151502179055506001600660006002815260200190815260200160002060006101000a81548160ff021916908315150217905550506200072c565b806002908162000144919062000645565b5050565b600033905090565b6000600360009054906101000a900473ffffffffffffffffffffffffffffffffffffffff16905081600360006101000a81548173ffffffffffffffffffffffffffffffffffffffff021916908373ffffffffffffffffffffffffffffffffffffffff1602179055508173ffffffffffffffffffffffffffffffffffffffff168173ffffffffffffffffffffffffffffffffffffffff167f8be0079c531659141344cd1fd0a4f28419497f9722a3daafe3b4186f6b6457e060405160405180910390a35050565b6000604051905090565b600080fd5b600080fd5b600080fd5b600080fd5b6000601f19601f8301169050919050565b7f4e487b7100000000000000000000000000000000000000000000000000000000600052604160045260246000fd5b6200027f8262000234565b810181811067ffffffffffffffff82111715620002a157620002a062000245565b5b80604052505050565b6000620002b662000216565b9050620002c4828262000274565b919050565b600067ffffffffffffffff821115620002e757620002e662000245565b5b620002f28262000234565b9050602081019050919050565b60005b838110156200031f57808201518184015260208101905062000302565b60008484015250505050565b6000620003426200033c84620002c9565b620002aa565b9050828152602081018484840111156200036157620003606200022f565b5b6200036e848285620002ff565b509392505050565b600082601f8301126200038e576200038d6200022a565b5b8151620003a08482602086016200032b565b91505092915050565b600060208284031215620003c257620003c162000220565b5b600082015167ffffffffffffffff811115620003e357620003e262000225565b5b620003f18482850162000376565b91505092915050565b600081519050919050565b7f4e487b7100000000000000000000000000000000000000000000000000000000600052602260045260246000fd5b600060028204905060018216806200044d57607f821691505b60208210810362000463576200046262000405565b5b50919050565b60008190508160005260206000209050919050565b60006020601f8301049050919050565b600082821b905092915050565b600060088302620004cd7fffffffffffffffffffffffffffffffffffffffffffffffffffffffffffffffff826200048e565b620004d986836200048e565b95508019841693508086168417925050509392505050565b6000819050919050565b6000819050919050565b600062000526620005206200051a84620004f1565b620004fb565b620004f1565b9050919050565b6000819050919050565b620005428362000505565b6200055a62000551826200052d565b8484546200049b565b825550505050565b600090565b6200057162000562565b6200057e81848462000537565b505050565b5b81811015620005a6576200059a60008262000567565b60018101905062000584565b5050565b601f821115620005f557620005bf8162000469565b620005ca846200047e565b81016020851015620005da578190505b620005f2620005e9856200047e565b83018262000583565b50505b505050565b600082821c905092915050565b60006200061a60001984600802620005fa565b1980831691505092915050565b600062000635838362000607565b9150826002028217905092915050565b6200065082620003fa565b67ffffffffffffffff8111156200066c576200066b62000245565b5b62000678825462000434565b62000685828285620005aa565b600060209050601f831160018114620006bd5760008415620006a8578287015190505b620006b4858262000627565b86555062000724565b601f198416620006cd8662000469565b60005b82811015620006f757848901518255600182019150602085019450602081019050620006d0565b8683101562000717578489015162000713601f89168262000607565b8355505b6001600288020188555050505b505050505050565b613e9b806200073c6000396000f3fe608060405234801561001057600080fd5b506004361061012b5760003560e01c8063715018a6116100ad578063bd85b03911610071578063bd85b03914610306578063e985e9c514610336578063f242432a14610366578063f2fde38b14610382578063f5298aca1461039e5761012b565b8063715018a61461029c578063731133e9146102a65780638456cb59146102c25780638da5cb5b146102cc578063a22cb465146102ea5761012b565b80632eb2c2d6116100f45780632eb2c2d6146101f85780633f4ba83a146102145780634e1273f41461021e5780634f558e791461024e5780635c975abb1461027e5761012b565b8062fdd58e1461013057806301ffc9a7146101605780630e89341c146101905780631f7fdffa146101c05780632db11544146101dc575b600080fd5b61014a6004803603810190610145919061247c565b6103ba565b60405161015791906124cb565b60405180910390f35b61017a6004803603810190610175919061253e565b610482565b6040516101879190612586565b60405180910390f35b6101aa60048036038101906101a591906125a1565b610564565b6040516101b7919061265e565b60405180910390f35b6101da60048036038101906101d5919061287d565b61060c565b005b6101f660048036038101906101f191906125a1565b610626565b005b610212600480360381019061020d9190612938565b6106ac565b005b61021c61074d565b005b61023860048036038101906102339190612aca565b61075f565b6040516102459190612c00565b60405180910390f35b610268600480360381019061026391906125a1565b610878565b6040516102759190612586565b60405180910390f35b61028661088c565b6040516102939190612586565b60405180910390f35b6102a46108a3565b005b6102c060048036038101906102bb9190612c22565b6108b7565b005b6102ca6108d1565b005b6102d46108e3565b6040516102e19190612cb4565b60405180910390f35b61030460048036038101906102ff9190612cfb565b61090d565b005b610320600480360381019061031b91906125a1565b610923565b60405161032d91906124cb565b60405180910390f35b610350600480360381019061034b9190612d3b565b610940565b60405161035d9190612586565b60405180910390f35b610380600480360381019061037b9190612d7b565b6109d4565b005b61039c60048036038101906103979190612e12565b610a75565b005b6103b860048036038101906103b39190612e3f565b610af8565b005b60008073ffffffffffffffffffffffffffffffffffffffff168373ffffffffffffffffffffffffffffffffffffffff160361042a576040517f08c379a000000000000000000000000000000000000000000000000000000000815260040161042190612f04565b60405180910390fd5b60008083815260200190815260200160002060008473ffffffffffffffffffffffffffffffffffffffff1673ffffffffffffffffffffffffffffffffffffffff16815260200190815260200160002054905092915050565b60007fd9b67a26000000000000000000000000000000000000000000000000000000007bffffffffffffffffffffffffffffffffffffffffffffffffffffffff1916827bffffffffffffffffffffffffffffffffffffffffffffffffffffffff1916148061054d57507f0e89341c000000000000000000000000000000000000000000000000000000007bffffffffffffffffffffffffffffffffffffffffffffffffffffffff1916827bffffffffffffffffffffffffffffffffffffffffffffffffffffffff1916145b8061055d575061055c82610bd2565b5b9050919050565b606061056f82610878565b6105ae576040517f08c379a00000000000000000000000000000000000000000000000000000000081526004016105a590612f96565b60405180910390fd5b6000600580546105bd90612fe5565b9050116105d95760405180602001604052806000815250610605565b60056105e483610c3c565b6040516020016105f59291906130ea565b6040516020818303038152906040525b9050919050565b610614610d9c565b61062084848484610e1a565b50505050565b600115156006600083815260200190815260200160002060009054906101000a900460ff1615151461068d576040517f08c379a000000000000000000000000000000000000000000000000000000000815260040161068490613180565b60405180910390fd5b6106a93382600160405180602001604052806000815250611046565b50565b6106b46111f6565b73ffffffffffffffffffffffffffffffffffffffff168573ffffffffffffffffffffffffffffffffffffffff1614806106fa57506106f9856106f46111f6565b610940565b5b610739576040517f08c379a000000000000000000000000000000000000000000000000000000000815260040161073090613212565b60405180910390fd5b61074685858585856111fe565b5050505050565b610755610d9c565b61075d61151f565b565b606081518351146107a5576040517f08c379a000000000000000000000000000000000000000000000000000000000815260040161079c906132a4565b60405180910390fd5b6000835167ffffffffffffffff8111156107c2576107c1612685565b5b6040519080825280602002602001820160405280156107f05781602001602082028036833780820191505090505b50905060005b845181101561086d5761083d858281518110610815576108146132c4565b5b60200260200101518583815181106108305761082f6132c4565b5b60200260200101516103ba565b8282815181106108505761084f6132c4565b5b6020026020010181815250508061086690613322565b90506107f6565b508091505092915050565b60008061088483610923565b119050919050565b6000600360149054906101000a900460ff16905090565b6108ab610d9c565b6108b56000611582565b565b6108bf610d9c565b6108cb84848484611046565b50505050565b6108d9610d9c565b6108e1611648565b565b6000600360009054906101000a900473ffffffffffffffffffffffffffffffffffffffff16905090565b61091f6109186111f6565b83836116ab565b5050565b600060046000838152602001908152602001600020549050919050565b6000600160008473ffffffffffffffffffffffffffffffffffffffff1673ffffffffffffffffffffffffffffffffffffffff16815260200190815260200160002060008373ffffffffffffffffffffffffffffffffffffffff1673ffffffffffffffffffffffffffffffffffffffff16815260200190815260200160002060009054906101000a900460ff16905092915050565b6109dc6111f6565b73ffffffffffffffffffffffffffffffffffffffff168573ffffffffffffffffffffffffffffffffffffffff161480610a225750610a2185610a1c6111f6565b610940565b5b610a61576040517f08c379a0000000000000000000000000000000000000000000000000000000008152600401610a5890613212565b60405180910390fd5b610a6e8585858585611817565b5050505050565b610a7d610d9c565b600073ffffffffffffffffffffffffffffffffffffffff168173ffffffffffffffffffffffffffffffffffffffff1603610aec576040517f08c379a0000000000000000000000000000000000000000000000000000000008152600401610ae3906133dc565b60405180910390fd5b610af581611582565b50565b610b006108e3565b73ffffffffffffffffffffffffffffffffffffffff163373ffffffffffffffffffffffffffffffffffffffff161480610b6b5750610b3c6111f6565b73ffffffffffffffffffffffffffffffffffffffff168373ffffffffffffffffffffffffffffffffffffffff16145b80610b835750610b8283610b7d6111f6565b610940565b5b610bc2576040517f08c379a0000000000000000000000000000000000000000000000000000000008152600401610bb990613212565b60405180910390fd5b610bcd838383611ab2565b505050565b60007f01ffc9a7000000000000000000000000000000000000000000000000000000007bffffffffffffffffffffffffffffffffffffffffffffffffffffffff1916827bffffffffffffffffffffffffffffffffffffffffffffffffffffffff1916149050919050565b606060008203610c83576040518060400160405280600181526020017f30000000000000000000000000000000000000000000000000000000000000008152509050610d97565b600082905060005b60008214610cb5578080610c9e90613322565b915050600a82610cae919061342b565b9150610c8b565b60008167ffffffffffffffff811115610cd157610cd0612685565b5b6040519080825280601f01601f191660200182016040528015610d035781602001600182028036833780820191505090505b5090505b60008514610d9057600182610d1c919061345c565b9150600a85610d2b9190613490565b6030610d3791906134c1565b60f81b818381518110610d4d57610d4c6132c4565b5b60200101907effffffffffffffffffffffffffffffffffffffffffffffffffffffffffffff1916908160001a905350600a85610d89919061342b565b9450610d07565b8093505050505b919050565b610da46111f6565b73ffffffffffffffffffffffffffffffffffffffff16610dc26108e3565b73ffffffffffffffffffffffffffffffffffffffff1614610e18576040517f08c379a0000000000000000000000000000000000000000000000000000000008152600401610e0f90613541565b60405180910390fd5b565b600073ffffffffffffffffffffffffffffffffffffffff168473ffffffffffffffffffffffffffffffffffffffff1603610e89576040517f08c379a0000000000000000000000000000000000000000000000000000000008152600401610e80906135d3565b60405180910390fd5b8151835114610ecd576040517f08c379a0000000000000000000000000000000000000000000000000000000008152600401610ec490613665565b60405180910390fd5b6000610ed76111f6565b9050610ee881600087878787611cf8565b60005b8451811015610fa157838181518110610f0757610f066132c4565b5b6020026020010151600080878481518110610f2557610f246132c4565b5b6020026020010151815260200190815260200160002060008873ffffffffffffffffffffffffffffffffffffffff1673ffffffffffffffffffffffffffffffffffffffff1681526020019081526020016000206000828254610f8791906134c1565b925050819055508080610f9990613322565b915050610eeb565b508473ffffffffffffffffffffffffffffffffffffffff16600073ffffffffffffffffffffffffffffffffffffffff168273ffffffffffffffffffffffffffffffffffffffff167f4a39dc06d4c0dbc64b70af90fd698a233a518aa5d07e595d983b8c0526c8f7fb8787604051611019929190613685565b60405180910390a461103081600087878787611d16565b61103f81600087878787611d1e565b5050505050565b600073ffffffffffffffffffffffffffffffffffffffff168473ffffffffffffffffffffffffffffffffffffffff16036110b5576040517f08c379a00000000000000000000000000000000000000000000000000000000081526004016110ac906135d3565b60405180910390fd5b60006110bf6111f6565b905060006110cc85611ef5565b905060006110d985611ef5565b90506110ea83600089858589611cf8565b8460008088815260200190815260200160002060008973ffffffffffffffffffffffffffffffffffffffff1673ffffffffffffffffffffffffffffffffffffffff168152602001908152602001600020600082825461114991906134c1565b925050819055508673ffffffffffffffffffffffffffffffffffffffff16600073ffffffffffffffffffffffffffffffffffffffff168473ffffffffffffffffffffffffffffffffffffffff167fc3d58168c5ae7397731d063d5bbf3d657854427343f4c083240f7aacaa2d0f6289896040516111c79291906136bc565b60405180910390a46111de83600089858589611d16565b6111ed83600089898989611f6f565b50505050505050565b600033905090565b8151835114611242576040517f08c379a000000000000000000000000000000000000000000000000000000000815260040161123990613665565b60405180910390fd5b600073ffffffffffffffffffffffffffffffffffffffff168473ffffffffffffffffffffffffffffffffffffffff16036112b1576040517f08c379a00000000000000000000000000000000000000000000000000000000081526004016112a890613757565b60405180910390fd5b60006112bb6111f6565b90506112cb818787878787611cf8565b60005b845181101561147c5760008582815181106112ec576112eb6132c4565b5b60200260200101519050600085838151811061130b5761130a6132c4565b5b60200260200101519050600080600084815260200190815260200160002060008b73ffffffffffffffffffffffffffffffffffffffff1673ffffffffffffffffffffffffffffffffffffffff168152602001908152602001600020549050818110156113ac576040517f08c379a00000000000000000000000000000000000000000000000000000000081526004016113a3906137e9565b60405180910390fd5b81810360008085815260200190815260200160002060008c73ffffffffffffffffffffffffffffffffffffffff1673ffffffffffffffffffffffffffffffffffffffff168152602001908152602001600020819055508160008085815260200190815260200160002060008b73ffffffffffffffffffffffffffffffffffffffff1673ffffffffffffffffffffffffffffffffffffffff168152602001908152602001600020600082825461146191906134c1565b925050819055505050508061147590613322565b90506112ce565b508473ffffffffffffffffffffffffffffffffffffffff168673ffffffffffffffffffffffffffffffffffffffff168273ffffffffffffffffffffffffffffffffffffffff167f4a39dc06d4c0dbc64b70af90fd698a233a518aa5d07e595d983b8c0526c8f7fb87876040516114f3929190613685565b60405180910390a4611509818787878787611d16565b611517818787878787611d1e565b505050505050565b611527612146565b6000600360146101000a81548160ff0219169083151502179055507f5db9ee0a495bf2e6ff9c91a7834c1ba4fdd244a5e8aa4e537bd38aeae4b073aa61156b6111f6565b6040516115789190612cb4565b60405180910390a1565b6000600360009054906101000a900473ffffffffffffffffffffffffffffffffffffffff16905081600360006101000a81548173ffffffffffffffffffffffffffffffffffffffff021916908373ffffffffffffffffffffffffffffffffffffffff1602179055508173ffffffffffffffffffffffffffffffffffffffff168173ffffffffffffffffffffffffffffffffffffffff167f8be0079c531659141344cd1fd0a4f28419497f9722a3daafe3b4186f6b6457e060405160405180910390a35050565b61165061218f565b6001600360146101000a81548160ff0219169083151502179055507f62e78cea01bee320cd4e420270b5ea74000d11b0c9f74754ebdbfc544b05a2586116946111f6565b6040516116a19190612cb4565b60405180910390a1565b8173ffffffffffffffffffffffffffffffffffffffff168373ffffffffffffffffffffffffffffffffffffffff1603611719576040517f08c379a00000000000000000000000000000000000000000000000000000000081526004016117109061387b565b60405180910390fd5b80600160008573ffffffffffffffffffffffffffffffffffffffff1673ffffffffffffffffffffffffffffffffffffffff16815260200190815260200160002060008473ffffffffffffffffffffffffffffffffffffffff1673ffffffffffffffffffffffffffffffffffffffff16815260200190815260200160002060006101000a81548160ff0219169083151502179055508173ffffffffffffffffffffffffffffffffffffffff168373ffffffffffffffffffffffffffffffffffffffff167f17307eab39ab6107e8899845ad3d59bd9653f200f220920489ca2b5937696c318360405161180a9190612586565b60405180910390a3505050565b600073ffffffffffffffffffffffffffffffffffffffff168473ffffffffffffffffffffffffffffffffffffffff1603611886576040517f08c379a000000000000000000000000000000000000000000000000000000000815260040161187d90613757565b60405180910390fd5b60006118906111f6565b9050600061189d85611ef5565b905060006118aa85611ef5565b90506118ba838989858589611cf8565b600080600088815260200190815260200160002060008a73ffffffffffffffffffffffffffffffffffffffff1673ffffffffffffffffffffffffffffffffffffffff16815260200190815260200160002054905085811015611951576040517f08c379a0000000000000000000000000000000000000000000000000000000008152600401611948906137e9565b60405180910390fd5b85810360008089815260200190815260200160002060008b73ffffffffffffffffffffffffffffffffffffffff1673ffffffffffffffffffffffffffffffffffffffff168152602001908152602001600020819055508560008089815260200190815260200160002060008a73ffffffffffffffffffffffffffffffffffffffff1673ffffffffffffffffffffffffffffffffffffffff1681526020019081526020016000206000828254611a0691906134c1565b925050819055508773ffffffffffffffffffffffffffffffffffffffff168973ffffffffffffffffffffffffffffffffffffffff168573ffffffffffffffffffffffffffffffffffffffff167fc3d58168c5ae7397731d063d5bbf3d657854427343f4c083240f7aacaa2d0f628a8a604051611a839291906136bc565b60405180910390a4611a99848a8a86868a611d16565b611aa7848a8a8a8a8a611f6f565b505050505050505050565b600073ffffffffffffffffffffffffffffffffffffffff168373ffffffffffffffffffffffffffffffffffffffff1603611b21576040517f08c379a0000000000000000000000000000000000000000000000000000000008152600401611b189061390d565b60405180910390fd5b6000611b2b6111f6565b90506000611b3884611ef5565b90506000611b4584611ef5565b9050611b6583876000858560405180602001604052806000815250611cf8565b600080600087815260200190815260200160002060008873ffffffffffffffffffffffffffffffffffffffff1673ffffffffffffffffffffffffffffffffffffffff16815260200190815260200160002054905084811015611bfc576040517f08c379a0000000000000000000000000000000000000000000000000000000008152600401611bf39061399f565b60405180910390fd5b84810360008088815260200190815260200160002060008973ffffffffffffffffffffffffffffffffffffffff1673ffffffffffffffffffffffffffffffffffffffff16815260200190815260200160002081905550600073ffffffffffffffffffffffffffffffffffffffff168773ffffffffffffffffffffffffffffffffffffffff168573ffffffffffffffffffffffffffffffffffffffff167fc3d58168c5ae7397731d063d5bbf3d657854427343f4c083240f7aacaa2d0f628989604051611cc99291906136bc565b60405180910390a4611cef84886000868660405180602001604052806000815250611d16565b50505050505050565b611d0061218f565b611d0e8686868686866121d9565b505050505050565b505050505050565b611d3d8473ffffffffffffffffffffffffffffffffffffffff166123a9565b15611eed578373ffffffffffffffffffffffffffffffffffffffff1663bc197c8187878686866040518663ffffffff1660e01b8152600401611d83959493929190613a14565b6020604051808303816000875af1925050508015611dbf57506040513d601f19601f82011682018060405250810190611dbc9190613a91565b60015b611e6457611dcb613acb565b806308c379a003611e275750611ddf613aed565b80611dea5750611e29565b806040517f08c379a0000000000000000000000000000000000000000000000000000000008152600401611e1e919061265e565b60405180910390fd5b505b6040517f08c379a0000000000000000000000000000000000000000000000000000000008152600401611e5b90613bef565b60405180910390fd5b63bc197c8160e01b7bffffffffffffffffffffffffffffffffffffffffffffffffffffffff1916817bffffffffffffffffffffffffffffffffffffffffffffffffffffffff191614611eeb576040517f08c379a0000000000000000000000000000000000000000000000000000000008152600401611ee290613c81565b60405180910390fd5b505b505050505050565b60606000600167ffffffffffffffff811115611f1457611f13612685565b5b604051908082528060200260200182016040528015611f425781602001602082028036833780820191505090505b5090508281600081518110611f5a57611f596132c4565b5b60200260200101818152505080915050919050565b611f8e8473ffffffffffffffffffffffffffffffffffffffff166123a9565b1561213e578373ffffffffffffffffffffffffffffffffffffffff1663f23a6e6187878686866040518663ffffffff1660e01b8152600401611fd4959493929190613ca1565b6020604051808303816000875af192505050801561201057506040513d601f19601f8201168201806040525081019061200d9190613a91565b60015b6120b55761201c613acb565b806308c379a0036120785750612030613aed565b8061203b575061207a565b806040517f08c379a000000000000000000000000000000000000000000000000000000000815260040161206f919061265e565b60405180910390fd5b505b6040517f08c379a00000000000000000000000000000000000000000000000000000000081526004016120ac90613bef565b60405180910390fd5b63f23a6e6160e01b7bffffffffffffffffffffffffffffffffffffffffffffffffffffffff1916817bffffffffffffffffffffffffffffffffffffffffffffffffffffffff19161461213c576040517f08c379a000000000000000000000000000000000000000000000000000000000815260040161213390613c81565b60405180910390fd5b505b505050505050565b61214e61088c565b61218d576040517f08c379a000000000000000000000000000000000000000000000000000000000815260040161218490613d47565b60405180910390fd5b565b61219761088c565b156121d7576040517f08c379a00000000000000000000000000000000000000000000000000000000081526004016121ce90613db3565b60405180910390fd5b565b6121e78686868686866123cc565b600073ffffffffffffffffffffffffffffffffffffffff168573ffffffffffffffffffffffffffffffffffffffff16036122985760005b83518110156122965782818151811061223a576122396132c4565b5b602002602001015160046000868481518110612259576122586132c4565b5b60200260200101518152602001908152602001600020600082825461227e91906134c1565b925050819055508061228f90613322565b905061221e565b505b600073ffffffffffffffffffffffffffffffffffffffff168473ffffffffffffffffffffffffffffffffffffffff16036123a15760005b835181101561239f5760008482815181106122ed576122ec6132c4565b5b60200260200101519050600084838151811061230c5761230b6132c4565b5b6020026020010151905060006004600084815260200190815260200160002054905081811015612371576040517f08c379a000000000000000000000000000000000000000000000000000000000815260040161236890613e45565b60405180910390fd5b81810360046000858152602001908152602001600020819055505050508061239890613322565b90506122cf565b505b505050505050565b6000808273ffffffffffffffffffffffffffffffffffffffff163b119050919050565b505050505050565b6000604051905090565b600080fd5b600080fd5b600073ffffffffffffffffffffffffffffffffffffffff82169050919050565b6000612413826123e8565b9050919050565b61242381612408565b811461242e57600080fd5b50565b6000813590506124408161241a565b92915050565b6000819050919050565b61245981612446565b811461246457600080fd5b50565b60008135905061247681612450565b92915050565b60008060408385031215612493576124926123de565b5b60006124a185828601612431565b92505060206124b285828601612467565b9150509250929050565b6124c581612446565b82525050565b60006020820190506124e060008301846124bc565b92915050565b60007fffffffff0000000000000000000000000000000000000000000000000000000082169050919050565b61251b816124e6565b811461252657600080fd5b50565b60008135905061253881612512565b92915050565b600060208284031215612554576125536123de565b5b600061256284828501612529565b91505092915050565b60008115159050919050565b6125808161256b565b82525050565b600060208201905061259b6000830184612577565b92915050565b6000602082840312156125b7576125b66123de565b5b60006125c584828501612467565b91505092915050565b600081519050919050565b600082825260208201905092915050565b60005b838110156126085780820151818401526020810190506125ed565b60008484015250505050565b6000601f19601f8301169050919050565b6000612630826125ce565b61263a81856125d9565b935061264a8185602086016125ea565b61265381612614565b840191505092915050565b600060208201905081810360008301526126788184612625565b905092915050565b600080fd5b7f4e487b7100000000000000000000000000000000000000000000000000000000600052604160045260246000fd5b6126bd82612614565b810181811067ffffffffffffffff821117156126dc576126db612685565b5b80604052505050565b60006126ef6123d4565b90506126fb82826126b4565b919050565b600067ffffffffffffffff82111561271b5761271a612685565b5b602082029050602081019050919050565b600080fd5b600061274461273f84612700565b6126e5565b905080838252602082019050602084028301858111156127675761276661272c565b5b835b81811015612790578061277c8882612467565b845260208401935050602081019050612769565b5050509392505050565b600082601f8301126127af576127ae612680565b5b81356127bf848260208601612731565b91505092915050565b600080fd5b600067ffffffffffffffff8211156127e8576127e7612685565b5b6127f182612614565b9050602081019050919050565b82818337600083830152505050565b600061282061281b846127cd565b6126e5565b90508281526020810184848401111561283c5761283b6127c8565b5b6128478482856127fe565b509392505050565b600082601f83011261286457612863612680565b5b813561287484826020860161280d565b91505092915050565b60008060008060808587031215612897576128966123de565b5b60006128a587828801612431565b945050602085013567ffffffffffffffff8111156128c6576128c56123e3565b5b6128d28782880161279a565b935050604085013567ffffffffffffffff8111156128f3576128f26123e3565b5b6128ff8782880161279a565b925050606085013567ffffffffffffffff8111156129205761291f6123e3565b5b61292c8782880161284f565b91505092959194509250565b600080600080600060a08688031215612954576129536123de565b5b600061296288828901612431565b955050602061297388828901612431565b945050604086013567ffffffffffffffff811115612994576129936123e3565b5b6129a08882890161279a565b935050606086013567ffffffffffffffff8111156129c1576129c06123e3565b5b6129cd8882890161279a565b925050608086013567ffffffffffffffff8111156129ee576129ed6123e3565b5b6129fa8882890161284f565b9150509295509295909350565b600067ffffffffffffffff821115612a2257612a21612685565b5b602082029050602081019050919050565b6000612a46612a4184612a07565b6126e5565b90508083825260208201905060208402830185811115612a6957612a6861272c565b5b835b81811015612a925780612a7e8882612431565b845260208401935050602081019050612a6b565b5050509392505050565b600082601f830112612ab157612ab0612680565b5b8135612ac1848260208601612a33565b91505092915050565b60008060408385031215612ae157612ae06123de565b5b600083013567ffffffffffffffff811115612aff57612afe6123e3565b5b612b0b85828601612a9c565b925050602083013567ffffffffffffffff811115612b2c57612b2b6123e3565b5b612b388582860161279a565b9150509250929050565b600081519050919050565b600082825260208201905092915050565b6000819050602082019050919050565b612b7781612446565b82525050565b6000612b898383612b6e565b60208301905092915050565b6000602082019050919050565b6000612bad82612b42565b612bb78185612b4d565b9350612bc283612b5e565b8060005b83811015612bf3578151612bda8882612b7d565b9750612be583612b95565b925050600181019050612bc6565b5085935050505092915050565b60006020820190508181036000830152612c1a8184612ba2565b905092915050565b60008060008060808587031215612c3c57612c3b6123de565b5b6000612c4a87828801612431565b9450506020612c5b87828801612467565b9350506040612c6c87828801612467565b925050606085013567ffffffffffffffff811115612c8d57612c8c6123e3565b5b612c998782880161284f565b91505092959194509250565b612cae81612408565b82525050565b6000602082019050612cc96000830184612ca5565b92915050565b612cd88161256b565b8114612ce357600080fd5b50565b600081359050612cf581612ccf565b92915050565b60008060408385031215612d1257612d116123de565b5b6000612d2085828601612431565b9250506020612d3185828601612ce6565b9150509250929050565b60008060408385031215612d5257612d516123de565b5b6000612d6085828601612431565b9250506020612d7185828601612431565b9150509250929050565b600080600080600060a08688031215612d9757612d966123de565b5b6000612da588828901612431565b9550506020612db688828901612431565b9450506040612dc788828901612467565b9350506060612dd888828901612467565b925050608086013567ffffffffffffffff811115612df957612df86123e3565b5b612e058882890161284f565b9150509295509295909350565b600060208284031215612e2857612e276123de565b5b6000612e3684828501612431565b91505092915050565b600080600060608486031215612e5857612e576123de565b5b6000612e6686828701612431565b9350506020612e7786828701612467565b9250506040612e8886828701612467565b9150509250925092565b7f455243313135353a2061646472657373207a65726f206973206e6f742061207660008201527f616c6964206f776e657200000000000000000000000000000000000000000000602082015250565b6000612eee602a836125d9565b9150612ef982612e92565b604082019050919050565b60006020820190508181036000830152612f1d81612ee1565b9050919050565b7f5468652070726f766964656420746f6b656e4964206861736e2774206265656e60008201527f206d696e746564207965742e0000000000000000000000000000000000000000602082015250565b6000612f80602c836125d9565b9150612f8b82612f24565b604082019050919050565b60006020820190508181036000830152612faf81612f73565b9050919050565b7f4e487b7100000000000000000000000000000000000000000000000000000000600052602260045260246000fd5b60006002820490506001821680612ffd57607f821691505b6020821081036130105761300f612fb6565b5b50919050565b600081905092915050565b60008190508160005260206000209050919050565b6000815461304381612fe5565b61304d8186613016565b94506001821660008114613068576001811461307d576130b0565b60ff19831686528115158202860193506130b0565b61308685613021565b60005b838110156130a857815481890152600182019150602081019050613089565b838801955050505b50505092915050565b60006130c4826125ce565b6130ce8185613016565b93506130de8185602086016125ea565b80840191505092915050565b60006130f68285613036565b915061310282846130b9565b91508190509392505050565b7f5468652070726f766964656420746f6b656e204944206973206e6f742061766160008201527f696c61626c6520666f72207075626c6963206d696e742e000000000000000000602082015250565b600061316a6037836125d9565b91506131758261310e565b604082019050919050565b600060208201905081810360008301526131998161315d565b9050919050565b7f455243313135353a2063616c6c6572206973206e6f7420746f6b656e206f776e60008201527f6572206e6f7220617070726f7665640000000000000000000000000000000000602082015250565b60006131fc602f836125d9565b9150613207826131a0565b604082019050919050565b6000602082019050818103600083015261322b816131ef565b9050919050565b7f455243313135353a206163636f756e747320616e6420696473206c656e67746860008201527f206d69736d617463680000000000000000000000000000000000000000000000602082015250565b600061328e6029836125d9565b915061329982613232565b604082019050919050565b600060208201905081810360008301526132bd81613281565b9050919050565b7f4e487b7100000000000000000000000000000000000000000000000000000000600052603260045260246000fd5b7f4e487b7100000000000000000000000000000000000000000000000000000000600052601160045260246000fd5b600061332d82612446565b91507fffffffffffffffffffffffffffffffffffffffffffffffffffffffffffffffff820361335f5761335e6132f3565b5b600182019050919050565b7f4f776e61626c653a206e6577206f776e657220697320746865207a65726f206160008201527f6464726573730000000000000000000000000000000000000000000000000000602082015250565b60006133c66026836125d9565b91506133d18261336a565b604082019050919050565b600060208201905081810360008301526133f5816133b9565b9050919050565b7f4e487b7100000000000000000000000000000000000000000000000000000000600052601260045260246000fd5b600061343682612446565b915061344183612446565b925082613451576134506133fc565b5b828204905092915050565b600061346782612446565b915061347283612446565b925082820390508181111561348a576134896132f3565b5b92915050565b600061349b82612446565b91506134a683612446565b9250826134b6576134b56133fc565b5b828206905092915050565b60006134cc82612446565b91506134d783612446565b92508282019050808211156134ef576134ee6132f3565b5b92915050565b7f4f776e61626c653a2063616c6c6572206973206e6f7420746865206f776e6572600082015250565b600061352b6020836125d9565b9150613536826134f5565b602082019050919050565b6000602082019050818103600083015261355a8161351e565b9050919050565b7f455243313135353a206d696e7420746f20746865207a65726f2061646472657360008201527f7300000000000000000000000000000000000000000000000000000000000000602082015250565b60006135bd6021836125d9565b91506135c882613561565b604082019050919050565b600060208201905081810360008301526135ec816135b0565b9050919050565b7f455243313135353a2069647320616e6420616d6f756e7473206c656e6774682060008201527f6d69736d61746368000000000000000000000000000000000000000000000000602082015250565b600061364f6028836125d9565b915061365a826135f3565b604082019050919050565b6000602082019050818103600083015261367e81613642565b9050919050565b6000604082019050818103600083015261369f8185612ba2565b905081810360208301526136b38184612ba2565b90509392505050565b60006040820190506136d160008301856124bc565b6136de60208301846124bc565b9392505050565b7f455243313135353a207472616e7366657220746f20746865207a65726f20616460008201527f6472657373000000000000000000000000000000000000000000000000000000602082015250565b60006137416025836125d9565b915061374c826136e5565b604082019050919050565b6000602082019050818103600083015261377081613734565b9050919050565b7f455243313135353a20696e73756666696369656e742062616c616e636520666f60008201527f72207472616e7366657200000000000000000000000000000000000000000000602082015250565b60006137d3602a836125d9565b91506137de82613777565b604082019050919050565b60006020820190508181036000830152613802816137c6565b9050919050565b7f455243313135353a2073657474696e6720617070726f76616c2073746174757360008201527f20666f722073656c660000000000000000000000000000000000000000000000602082015250565b60006138656029836125d9565b915061387082613809565b604082019050919050565b6000602082019050818103600083015261389481613858565b9050919050565b7f455243313135353a206275726e2066726f6d20746865207a65726f206164647260008201527f6573730000000000000000000000000000000000000000000000000000000000602082015250565b60006138f76023836125d9565b91506139028261389b565b604082019050919050565b60006020820190508181036000830152613926816138ea565b9050919050565b7f455243313135353a206275726e20616d6f756e7420657863656564732062616c60008201527f616e636500000000000000000000000000000000000000000000000000000000602082015250565b60006139896024836125d9565b91506139948261392d565b604082019050919050565b600060208201905081810360008301526139b88161397c565b9050919050565b600081519050919050565b600082825260208201905092915050565b60006139e6826139bf565b6139f081856139ca565b9350613a008185602086016125ea565b613a0981612614565b840191505092915050565b600060a082019050613a296000830188612ca5565b613a366020830187612ca5565b8181036040830152613a488186612ba2565b90508181036060830152613a5c8185612ba2565b90508181036080830152613a7081846139db565b90509695505050505050565b600081519050613a8b81612512565b92915050565b600060208284031215613aa757613aa66123de565b5b6000613ab584828501613a7c565b91505092915050565b60008160e01c9050919050565b600060033d1115613aea5760046000803e613ae7600051613abe565b90505b90565b600060443d10613b7a57613aff6123d4565b60043d036004823e80513d602482011167ffffffffffffffff82111715613b27575050613b7a565b808201805167ffffffffffffffff811115613b455750505050613b7a565b80602083010160043d038501811115613b62575050505050613b7a565b613b71826020018501866126b4565b82955050505050505b90565b7f455243313135353a207472616e7366657220746f206e6f6e204552433131353560008201527f526563656976657220696d706c656d656e746572000000000000000000000000602082015250565b6000613bd96034836125d9565b9150613be482613b7d565b604082019050919050565b60006020820190508181036000830152613c0881613bcc565b9050919050565b7f455243313135353a204552433131353552656365697665722072656a6563746560008201527f6420746f6b656e73000000000000000000000000000000000000000000000000602082015250565b6000613c6b6028836125d9565b9150613c7682613c0f565b604082019050919050565b60006020820190508181036000830152613c9a81613c5e565b9050919050565b600060a082019050613cb66000830188612ca5565b613cc36020830187612ca5565b613cd060408301866124bc565b613cdd60608301856124bc565b8181036080830152613cef81846139db565b90509695505050505050565b7f5061757361626c653a206e6f7420706175736564000000000000000000000000600082015250565b6000613d316014836125d9565b9150613d3c82613cfb565b602082019050919050565b60006020820190508181036000830152613d6081613d24565b9050919050565b7f5061757361626c653a2070617573656400000000000000000000000000000000600082015250565b6000613d9d6010836125d9565b9150613da882613d67565b602082019050919050565b60006020820190508181036000830152613dcc81613d90565b9050919050565b7f455243313135353a206275726e20616d6f756e74206578636565647320746f7460008201527f616c537570706c79000000000000000000000000000000000000000000000000602082015250565b6000613e2f6028836125d9565b9150613e3a82613dd3565b604082019050919050565b60006020820190508181036000830152613e5e81613e22565b905091905056fea264697066735822122016c3f338928f20765817d348b571cd9f5aec8a560771226122544aac5ec2e30064736f6c63430008100033",
    "linkReferences": {},
    "deployedLinkReferences": {}
}